{
  "contractName": "Auth",
  "abi": [
    {
      "anonymous": false,
      "inputs": [
        {
          "indexed": false,
          "internalType": "uint256",
          "name": "id",
          "type": "uint256"
        },
        {
          "indexed": false,
          "internalType": "address",
          "name": "insuredBy",
          "type": "address"
        },
        {
          "indexed": false,
          "internalType": "address",
          "name": "doctor",
          "type": "address"
        },
        {
          "indexed": false,
          "internalType": "string",
          "name": "reason",
          "type": "string"
        },
        {
          "indexed": false,
          "internalType": "bool",
          "name": "isApproved",
          "type": "bool"
        },
        {
          "indexed": false,
          "internalType": "uint256",
          "name": "amount",
          "type": "uint256"
        }
      ],
      "name": "InsuranceCreated",
      "type": "event"
    },
    {
      "inputs": [
        {
          "internalType": "uint256",
          "name": "",
          "type": "uint256"
        }
      ],
      "name": "doctorAccounts",
      "outputs": [
        {
          "internalType": "address",
          "name": "",
          "type": "address"
        }
      ],
      "stateMutability": "view",
      "type": "function",
      "constant": true
    },
    {
      "inputs": [
        {
          "internalType": "uint256",
          "name": "",
          "type": "uint256"
        }
      ],
      "name": "insurance",
      "outputs": [
        {
          "internalType": "uint256",
          "name": "id",
          "type": "uint256"
        },
        {
          "internalType": "address",
          "name": "insuredBy",
          "type": "address"
        },
        {
          "internalType": "address",
          "name": "doctor",
          "type": "address"
        },
        {
          "internalType": "string",
          "name": "reason",
          "type": "string"
        },
        {
          "internalType": "bool",
          "name": "isApproved",
          "type": "bool"
        },
        {
          "internalType": "uint256",
          "name": "amount",
          "type": "uint256"
        }
      ],
      "stateMutability": "view",
      "type": "function",
      "constant": true
    },
    {
      "inputs": [],
      "name": "insuranceId",
      "outputs": [
        {
          "internalType": "uint256",
          "name": "",
          "type": "uint256"
        }
      ],
      "stateMutability": "view",
      "type": "function",
      "constant": true
    },
    {
      "inputs": [],
      "name": "nextId",
      "outputs": [
        {
          "internalType": "uint256",
          "name": "",
          "type": "uint256"
        }
      ],
      "stateMutability": "view",
      "type": "function",
      "constant": true
    },
    {
      "inputs": [
        {
          "internalType": "uint256",
          "name": "",
          "type": "uint256"
        }
      ],
      "name": "userinsurance",
      "outputs": [
        {
          "internalType": "uint256",
          "name": "id",
          "type": "uint256"
        },
        {
          "internalType": "address",
          "name": "insuredBy",
          "type": "address"
        },
        {
          "internalType": "address",
          "name": "doctor",
          "type": "address"
        },
        {
          "internalType": "string",
          "name": "reason",
          "type": "string"
        },
        {
          "internalType": "bool",
          "name": "isApproved",
          "type": "bool"
        },
        {
          "internalType": "uint256",
          "name": "amount",
          "type": "uint256"
        }
      ],
      "stateMutability": "view",
      "type": "function",
      "constant": true
    },
    {
      "inputs": [
        {
          "internalType": "uint256",
          "name": "",
          "type": "uint256"
        }
      ],
      "name": "userinsurances2",
      "outputs": [
        {
          "internalType": "uint256",
          "name": "",
          "type": "uint256"
        }
      ],
      "stateMutability": "view",
      "type": "function",
      "constant": true
    },
    {
      "inputs": [
        {
          "internalType": "address",
          "name": "_addr",
          "type": "address"
        }
      ],
      "name": "totaldoctorInsurance",
      "outputs": [
        {
          "internalType": "uint256",
          "name": "",
          "type": "uint256"
        }
      ],
      "stateMutability": "view",
      "type": "function",
      "constant": true
    },
    {
      "inputs": [
        {
          "internalType": "address",
          "name": "_addr",
          "type": "address"
        }
      ],
      "name": "totaluserInsurance",
      "outputs": [
        {
          "internalType": "uint256",
          "name": "",
          "type": "uint256"
        }
      ],
      "stateMutability": "view",
      "type": "function",
      "constant": true
    },
    {
      "inputs": [
        {
          "internalType": "address",
          "name": "_addr",
          "type": "address"
        }
      ],
      "name": "getUserInsurance",
      "outputs": [
        {
          "internalType": "uint256",
          "name": "",
          "type": "uint256"
        },
        {
          "internalType": "string",
          "name": "",
          "type": "string"
        },
        {
          "internalType": "string",
          "name": "",
          "type": "string"
        },
        {
          "internalType": "string",
          "name": "",
          "type": "string"
        },
        {
          "internalType": "uint256",
          "name": "",
          "type": "uint256"
        },
        {
          "internalType": "address",
          "name": "",
          "type": "address"
        }
      ],
      "stateMutability": "view",
      "type": "function",
      "constant": true
    },
    {
      "inputs": [
        {
          "internalType": "uint256",
          "name": "id",
          "type": "uint256"
        }
      ],
      "name": "getUserInsuranceById",
      "outputs": [
        {
          "internalType": "uint256",
          "name": "",
          "type": "uint256"
        },
        {
          "internalType": "string",
          "name": "",
          "type": "string"
        },
        {
          "internalType": "string",
          "name": "",
          "type": "string"
        },
        {
          "internalType": "string",
          "name": "",
          "type": "string"
        },
        {
          "internalType": "uint256",
          "name": "",
          "type": "uint256"
        },
        {
          "internalType": "address",
          "name": "",
          "type": "address"
        },
        {
          "internalType": "address",
          "name": "",
          "type": "address"
        }
      ],
      "stateMutability": "view",
      "type": "function",
      "constant": true
    },
    {
      "inputs": [
        {
          "internalType": "address",
          "name": "_addr",
          "type": "address"
        }
      ],
      "name": "getDoctorInsuranceForApproval",
      "outputs": [
        {
          "internalType": "string",
          "name": "",
          "type": "string"
        },
        {
          "internalType": "string",
          "name": "",
          "type": "string"
        },
        {
          "internalType": "string",
          "name": "",
          "type": "string"
        },
        {
          "internalType": "uint256",
          "name": "",
          "type": "uint256"
        },
        {
          "internalType": "address",
          "name": "",
          "type": "address"
        }
      ],
      "stateMutability": "view",
      "type": "function",
      "constant": true
    },
    {
      "inputs": [
        {
          "internalType": "address",
          "name": "_address",
          "type": "address"
        }
      ],
      "name": "isDr",
      "outputs": [
        {
          "internalType": "bool",
          "name": "",
          "type": "bool"
        }
      ],
      "stateMutability": "view",
      "type": "function",
      "constant": true
    },
    {
      "inputs": [],
      "name": "getDoctors",
      "outputs": [
        {
          "internalType": "address[]",
          "name": "",
          "type": "address[]"
        }
      ],
      "stateMutability": "view",
      "type": "function",
      "constant": true
    },
    {
      "inputs": [
        {
          "internalType": "address",
          "name": "_address",
          "type": "address"
        }
      ],
      "name": "getDoctor",
      "outputs": [
        {
          "internalType": "string",
          "name": "",
          "type": "string"
        }
      ],
      "stateMutability": "view",
      "type": "function",
      "constant": true
    },
    {
      "inputs": [],
      "name": "countDoctors",
      "outputs": [
        {
          "internalType": "uint256",
          "name": "",
          "type": "uint256"
        }
      ],
      "stateMutability": "view",
      "type": "function",
      "constant": true
    },
    {
      "inputs": [
        {
          "internalType": "address",
          "name": "_insuredBy",
          "type": "address"
        },
        {
          "internalType": "string",
          "name": "_reason",
          "type": "string"
        },
        {
          "internalType": "uint256",
          "name": "_amount",
          "type": "uint256"
        }
      ],
      "name": "createInsurance",
      "outputs": [],
      "stateMutability": "nonpayable",
      "type": "function"
    },
    {
      "inputs": [
        {
          "internalType": "uint256",
          "name": "id",
          "type": "uint256"
        }
      ],
      "name": "approveInsurance",
      "outputs": [],
      "stateMutability": "nonpayable",
      "type": "function"
    },
    {
      "inputs": [
        {
          "internalType": "uint256",
          "name": "id",
          "type": "uint256"
        }
      ],
      "name": "disapproveInsurance",
      "outputs": [],
      "stateMutability": "nonpayable",
      "type": "function"
    },
    {
      "inputs": [
        {
          "internalType": "address",
          "name": "_address",
          "type": "address"
        },
        {
          "internalType": "address",
          "name": "_draddress",
          "type": "address"
        },
        {
          "internalType": "string",
          "name": "_name",
          "type": "string"
        },
        {
          "internalType": "string",
          "name": "_password",
          "type": "string"
        },
        {
          "internalType": "bool",
          "name": "_isDoctor",
          "type": "bool"
        }
      ],
      "name": "register",
      "outputs": [
        {
          "internalType": "bool",
          "name": "",
          "type": "bool"
        }
      ],
      "stateMutability": "nonpayable",
      "type": "function"
    },
    {
      "inputs": [
        {
          "internalType": "address",
          "name": "_address",
          "type": "address"
        },
        {
          "internalType": "string",
          "name": "_password",
          "type": "string"
        }
      ],
      "name": "login",
      "outputs": [
        {
          "internalType": "uint256",
          "name": "",
          "type": "uint256"
        }
      ],
      "stateMutability": "nonpayable",
      "type": "function"
    },
    {
      "inputs": [
        {
          "internalType": "address",
          "name": "_address",
          "type": "address"
        }
      ],
      "name": "checkIsUserLogged",
      "outputs": [
        {
          "internalType": "bool",
          "name": "",
          "type": "bool"
        }
      ],
      "stateMutability": "view",
      "type": "function",
      "constant": true
    },
    {
      "inputs": [
        {
          "internalType": "address",
          "name": "_address",
          "type": "address"
        }
      ],
      "name": "logout",
      "outputs": [],
      "stateMutability": "nonpayable",
      "type": "function"
    }
  ],
  "bytecode": "0x608060405260008055600060015534801561001957600080fd5b50611990806100296000396000f3fe608060405234801561001057600080fd5b50600436106101425760003560e01c80639700e19e116100b8578063cff30f8a1161007c578063cff30f8a14610357578063dd6326aa1461036a578063ec4551271461037d578063eeab413f14610390578063f2cc849614610398578063fe8b2127146103ab57600080fd5b80639700e19e146102a4578063b13d5d94146102b7578063be956873146102cc578063bf4128fb14610300578063cc51f9b91461032557600080fd5b80633f9fd40a1161010a5780633f9fd40a1461021a5780635acf77b0146102455780635cffec981461024e57806361b8ce8c1461026157806366c61ea61461026a5780637bfdd2491461027f57600080fd5b80631927312614610147578063297f7b39146101745780632f04e064146101b35780632f19d50b146101d35780633c7731e2146101f4575b600080fd5b61015a610155366004611455565b6103be565b60405161016b9594939291906114c4565b60405180910390f35b6101a3610182366004611455565b6001600160a01b031660009081526002602052604090206004015460ff1690565b604051901515815260200161016b565b6101c66101c1366004611455565b6105e6565b60405161016b9190611520565b6101e66101e13660046115d6565b610696565b60405190815260200161016b565b610207610202366004611624565b610807565b60405161016b979695949392919061163d565b61022d610228366004611624565b610a3c565b6040516001600160a01b03909116815260200161016b565b6101e660005481565b6101a361025c3660046116a6565b610a66565b6101e660015481565b61027d610278366004611624565b610bc6565b005b61029261028d366004611624565b610c0e565b60405161016b96959493929190611745565b6102926102b2366004611624565b610cf0565b6102bf610d00565b60405161016b919061178c565b6101a36102da366004611455565b6001600160a01b0316600090815260026020526040902060040154610100900460ff1690565b61031361030e366004611455565b610d62565b60405161016b969594939291906117d9565b61027d610333366004611455565b6001600160a01b03166000908152600260205260409020600401805460ff19169055565b6101e6610365366004611455565b610fbb565b61027d610378366004611624565b611031565b6101e661038b366004611624565b611093565b6003546101e6565b61027d6103a636600461183c565b6110b4565b6101e66103b9366004611455565b61129e565b606080606060008060006040518060400160405280600581526020016468656c6c6f60d81b815250905060608060008060005b6004548110156105d4578b6001600160a01b03166004828154811061041857610418611893565b60009182526020909120600260069092020101546001600160a01b031614156105c2576004818154811061044e5761044e611893565b9060005260206000209060060201600301805461046a906118a9565b80601f0160208091040260200160405190810160405280929190818152602001828054610496906118a9565b80156104e35780601f106104b8576101008083540402835291602001916104e3565b820191906000526020600020905b8154815290600101906020018083116104c657829003601f168201915b50505050509550600481815481106104fd576104fd611893565b90600052602060002090600602016005015491506004818154811061052457610524611893565b60009182526020909120600260069092020101546001600160a01b0316925061054c836105e6565b93506004818154811061056157610561611893565b600091825260209091206004600690920201015460ff16156105a157604051806040016040528060048152602001637472756560e01b81525094506105c2565b6040518060400160405280600581526020016466616c736560d81b81525094505b806105cc816118e4565b9150506103f1565b50919a93995091975095509350915050565b6001600160a01b038116600090815260026020819052604090912001805460609190610611906118a9565b80601f016020809104026020016040519081016040528092919081815260200182805461063d906118a9565b801561068a5780601f1061065f5761010080835404028352916020019161068a565b820191906000526020600020905b81548152906001019060200180831161066d57829003601f168201915b50505050509050919050565b6001600160a01b03821660009081526002602052604081206003018054839183916106c0906118a9565b80601f01602080910402602001604051908101604052809291908181526020018280546106ec906118a9565b80156107395780601f1061070e57610100808354040283529160200191610739565b820191906000526020600020905b81548152906001019060200180831161071c57829003601f168201915b505050505090506000825190508151811461075a5760009350505050610801565b60005b818110156107d15782818151811061077757610777611893565b602001015160f81c60f81b6001600160f81b03191684828151811061079e5761079e611893565b01602001516001600160f81b031916146107bf576000945050505050610801565b806107c9816118e4565b91505061075d565b5050506001600160a01b0384166000908152600260205260409020600401805460ff191660019081179091559150505b92915050565b600060608060606000806000806040518060400160405280600581526020016468656c6c6f60d81b815250905060608060008060008060048f8154811061085057610850611893565b9060005260206000209060060201600301805461086c906118a9565b80601f0160208091040260200160405190810160405280929190818152602001828054610898906118a9565b80156108e55780601f106108ba576101008083540402835291602001916108e5565b820191906000526020600020905b8154815290600101906020018083116108c857829003601f168201915b5050505050965060048f815481106108ff576108ff611893565b906000526020600020906006020160000154905060048f8154811061092657610926611893565b906000526020600020906006020160050154915060048f8154811061094d5761094d611893565b906000526020600020906006020160020160009054906101000a90046001600160a01b0316935060048f8154811061098757610987611893565b60009182526020909120600160069092020101546001600160a01b031692506109af846105e6565b945060048f815481106109c4576109c4611893565b600091825260209091206004600690920201015460ff1615610a0457604051806040016040528060048152602001637472756560e01b8152509550610a25565b6040518060400160405280600581526020016466616c736560d81b81525095505b9e939d50949b509299509297509195509350915050565b60038181548110610a4c57600080fd5b6000918252602090912001546001600160a01b0316905081565b6001600160a01b03858116600090815260026020526040812054909116331415610a8f57600080fd5b6001600160a01b03868116600081815260026020818152604090922080546001600160a01b03199081169094178155600181018054909416948a16949094179092558651610ae49390920191908701906113a0565b506001600160a01b03861660009081526002602090815260409091208451610b14926003909201918601906113a0565b506001600160a01b03861660009081526002602052604081206004810180546103e860059093019290925561ffff19909116610100851515021790556001805491610b5e836118e4565b909155505060018215151415610bba57600380546001810182556000919091527fc2575a0e9e593c00f959f8c92f12db2869c3395a3b0502d05e2516446f71f85b0180546001600160a01b0319166001600160a01b0388161790555b50600195945050505050565b6000610bd18261130d565b9050600160048281548110610be857610be8611893565b60009182526020909120600690910201600401805460ff19169115159190911790555050565b60058181548110610c1e57600080fd5b600091825260209091206006909102018054600182015460028301546003840180549395506001600160a01b03928316949290911692610c5d906118a9565b80601f0160208091040260200160405190810160405280929190818152602001828054610c89906118a9565b8015610cd65780601f10610cab57610100808354040283529160200191610cd6565b820191906000526020600020905b815481529060010190602001808311610cb957829003601f168201915b505050506004830154600590930154919260ff1691905086565b60048181548110610c1e57600080fd5b60606003805480602002602001604051908101604052809291908181526020018280548015610d5857602002820191906000526020600020905b81546001600160a01b03168152600190910190602001808311610d3a575b5050505050905090565b6000606080606060008060006040518060400160405280600581526020016468656c6c6f60d81b8152509050606080600080600080600090505b600454811015610fa6578d6001600160a01b031660048281548110610dc357610dc3611893565b60009182526020909120600160069092020101546001600160a01b03161415610f945760048181548110610df957610df9611893565b90600052602060002090600602016003018054610e15906118a9565b80601f0160208091040260200160405190810160405280929190818152602001828054610e41906118a9565b8015610e8e5780601f10610e6357610100808354040283529160200191610e8e565b820191906000526020600020905b815481529060010190602001808311610e7157829003601f168201915b5050505050965060048181548110610ea857610ea8611893565b906000526020600020906006020160000154915060048181548110610ecf57610ecf611893565b906000526020600020906006020160050154925060048181548110610ef657610ef6611893565b60009182526020909120600260069092020101546001600160a01b03169350610f1e846105e6565b945060048181548110610f3357610f33611893565b600091825260209091206004600690920201015460ff1615610f7357604051806040016040528060048152602001637472756560e01b8152509550610f94565b6040518060400160405280600581526020016466616c736560d81b81525095505b80610f9e816118e4565b915050610d9c565b509c929b509399509197509195509350915050565b600080805b60045481101561102a57836001600160a01b031660048281548110610fe757610fe7611893565b60009182526020909120600260069092020101546001600160a01b031614156110185781611014816118e4565b9250505b80611022816118e4565b915050610fc0565b5092915050565b3360009081526002602052604090206004015460ff1615156001146110715760405162461bcd60e51b81526004016110689061190d565b60405180910390fd5b600061107c8261130d565b9050600060048281548110610be857610be8611893565b600681815481106110a357600080fd5b600091825260209091200154905081565b3360009081526002602052604090206004015460ff1615156001146110eb5760405162461bcd60e51b81526004016110689061190d565b6001600160a01b0380841660008181526002602090815260408083206001908101548454835160c081018552818152808601978852918816938201848152606083018b81526080840188905260a084018b9052600480549586018155909752825160069094027f8a35acfbc15ff81a39ae7d344fd709f28e8600b4aa8c65c6b64bfe7fe36bd19b810194855597517f8a35acfbc15ff81a39ae7d344fd709f28e8600b4aa8c65c6b64bfe7fe36bd19c89018054918b166001600160a01b031992831617905590517f8a35acfbc15ff81a39ae7d344fd709f28e8600b4aa8c65c6b64bfe7fe36bd19d8901805491909a1691161790975593518051929695919361121b937f8a35acfbc15ff81a39ae7d344fd709f28e8600b4aa8c65c6b64bfe7fe36bd19e909301929101906113a0565b50608082015160048201805460ff191691151591909117905560a0909101516005909101556040517f5c256b782f5168236998b6c623228d0203d5a2b3ba42e2b4658e2579c051bdd29061127b9083908890869089906000908a90611745565b60405180910390a1600080549080611292836118e4565b91905055505050505050565b600080805b60045481101561102a57836001600160a01b0316600482815481106112ca576112ca611893565b60009182526020909120600160069092020101546001600160a01b031614156112fb57816112f7816118e4565b9250505b80611305816118e4565b9150506112a3565b6000805b60045481101561135f57826004828154811061132f5761132f611893565b906000526020600020906006020160000154141561134d5792915050565b80611357816118e4565b915050611311565b5060405162461bcd60e51b8152602060048201526015602482015274636c61696d20646f6573206e6f742065786973747360581b6044820152606401611068565b8280546113ac906118a9565b90600052602060002090601f0160209004810192826113ce5760008555611414565b82601f106113e757805160ff1916838001178555611414565b82800160010185558215611414579182015b828111156114145782518255916020019190600101906113f9565b50611420929150611424565b5090565b5b808211156114205760008155600101611425565b80356001600160a01b038116811461145057600080fd5b919050565b60006020828403121561146757600080fd5b61147082611439565b9392505050565b6000815180845260005b8181101561149d57602081850181015186830182015201611481565b818111156114af576000602083870101525b50601f01601f19169290920160200192915050565b60a0815260006114d760a0830188611477565b82810360208401526114e98188611477565b905082810360408401526114fd8187611477565b606084019590955250506001600160a01b03919091166080909101529392505050565b6020815260006114706020830184611477565b634e487b7160e01b600052604160045260246000fd5b600082601f83011261155a57600080fd5b813567ffffffffffffffff8082111561157557611575611533565b604051601f8301601f19908116603f0116810190828211818310171561159d5761159d611533565b816040528381528660208588010111156115b657600080fd5b836020870160208301376000602085830101528094505050505092915050565b600080604083850312156115e957600080fd5b6115f283611439565b9150602083013567ffffffffffffffff81111561160e57600080fd5b61161a85828601611549565b9150509250929050565b60006020828403121561163657600080fd5b5035919050565b87815260e06020820152600061165660e0830189611477565b82810360408401526116688189611477565b9050828103606084015261167c8188611477565b608084019690965250506001600160a01b0392831660a0820152911660c090910152949350505050565b600080600080600060a086880312156116be57600080fd5b6116c786611439565b94506116d560208701611439565b9350604086013567ffffffffffffffff808211156116f257600080fd5b6116fe89838a01611549565b9450606088013591508082111561171457600080fd5b5061172188828901611549565b9250506080860135801515811461173757600080fd5b809150509295509295909350565b8681526001600160a01b0386811660208301528516604082015260c06060820181905260009061177790830186611477565b93151560808301525060a00152949350505050565b6020808252825182820181905260009190848201906040850190845b818110156117cd5783516001600160a01b0316835292840192918401916001016117a8565b50909695505050505050565b86815260c0602082015260006117f260c0830188611477565b82810360408401526118048188611477565b905082810360608401526118188187611477565b608084019590955250506001600160a01b039190911660a090910152949350505050565b60008060006060848603121561185157600080fd5b61185a84611439565b9250602084013567ffffffffffffffff81111561187657600080fd5b61188286828701611549565b925050604084013590509250925092565b634e487b7160e01b600052603260045260246000fd5b600181811c908216806118bd57607f821691505b602082108114156118de57634e487b7160e01b600052602260045260246000fd5b50919050565b600060001982141561190657634e487b7160e01b600052601160045260246000fd5b5060010190565b6020808252602d908201527f416374696f6e206e6f74207065726d69747465642075736572206e656564207460408201526c1bc81b1bd9da5b88199a5c9cdd609a1b60608201526080019056fea264697066735822122095e5e9fbc4aedd0288bbf301e2f1629160a6f76abd250bfaec471a4fd68a035f64736f6c634300080a0033",
  "immutableReferences": {},
  "source": "pragma solidity ^0.8.0;\r\n\r\ncontract Auth {\r\n    uint public insuranceId=0;\r\n    uint public nextId=0;\r\n\r\n    struct Insurance{\r\n       uint id;\r\n       address insuredBy;\r\n       address doctor;\r\n       string reason;\r\n       bool isApproved;\r\n       uint amount; \r\n    }\r\n    event InsuranceCreated(\r\n        uint id,\r\n       address insuredBy,\r\n       address doctor,\r\n       string reason,\r\n       bool isApproved,\r\n       uint amount\r\n    );\r\n    \r\n    struct UserDetail {\r\n        address addr;\r\n        address draddr;\r\n        string name;\r\n        string password;\r\n        bool isUserLoggedIn;\r\n        bool isDoctor;\r\n        uint Amount;\r\n    }\r\n    mapping(address => UserDetail) user;\r\n    address[] public doctorAccounts;\r\n\r\n    Insurance[] public insurance;\r\n    Insurance[] public userinsurance;\r\n    uint[]  public userinsurances2;\r\n    modifier checkIsUserLogged2 {\r\n        require(user[msg.sender].isUserLoggedIn == true, \"Action not permitted user need to login first\");\r\n        _;\r\n    }\r\n    function totaldoctorInsurance(address _addr )external view returns(uint) {\r\n        uint count=0;  \r\n        for (uint i = 0; i < insurance.length; i++) {\r\n            if(insurance[i].doctor==_addr){ \r\n                count++;\r\n            }\r\n        }\r\n        return count;\r\n    }\r\n    function totaluserInsurance(address _addr )external view returns(uint) {\r\n        uint count=0;  \r\n        for (uint i = 0; i < insurance.length; i++) {\r\n            if(insurance[i].insuredBy==_addr){ \r\n                count++;\r\n            }\r\n        }\r\n        return count;\r\n    }\r\n    function getUserInsurance(address _addr )view external returns(uint,string memory,string memory,string memory,uint,address ) {\r\n        string memory reason1=\"hello\";\r\n        string memory isApproved1;\r\n        string memory drname1;\r\n        address temp;\r\n        uint amount1;\r\n        uint id1;\r\n        \r\n        for (uint i = 0; i < insurance.length; i++) {\r\n            if(insurance[i].insuredBy==_addr){ \r\n                reason1 = insurance[i].reason;\r\n                                id1 = insurance[i].id;\r\n\r\n                amount1 = insurance[i].amount;\r\n                temp = insurance[i].doctor;\r\n                drname1 = getDoctor(temp);\r\n                if(insurance[i].isApproved){\r\n                    isApproved1=\"true\";\r\n                }else{\r\n                    isApproved1=\"false\";\r\n                }\r\n            }\r\n        }\r\n        return (id1,drname1,reason1,isApproved1,amount1,temp);\r\n    }\r\n    function getUserInsuranceById(uint id)view external returns(uint,string memory,string memory,string memory,uint,address,address ) {\r\n        string memory reason1=\"hello\";\r\n        string memory isApproved1;\r\n        string memory drname1;\r\n        address temp;\r\n        address temp2;\r\n        uint amount1;\r\n        uint id1;\r\n        \r\n       \r\n          \r\n                reason1 = insurance[id].reason;\r\n                                id1 = insurance[id].id;\r\n\r\n                amount1 = insurance[id].amount;\r\n                temp = insurance[id].doctor;\r\n                temp2 = insurance[id].insuredBy;\r\n                drname1 = getDoctor(temp);\r\n                if(insurance[id].isApproved){\r\n                    isApproved1=\"true\";\r\n                }else{\r\n                    isApproved1=\"false\";\r\n                }\r\n            \r\n        \r\n        return (id1,drname1,reason1,isApproved1,amount1,temp,temp2);\r\n    }\r\n    function getDoctorInsuranceForApproval(address _addr )view external returns(string memory,string memory,string memory,uint,address ) {\r\n        string memory reason1=\"hello\";\r\n        string memory isApproved1;\r\n        string memory drname1;\r\n        address temp;\r\n        uint amount1;\r\n        for (uint i = 0; i < insurance.length; i++) {\r\n            if(insurance[i].doctor==_addr){ \r\n                reason1 = insurance[i].reason;\r\n                amount1 = insurance[i].amount;\r\n                temp = insurance[i].doctor;\r\n                drname1 = getDoctor(temp);\r\n                if(insurance[i].isApproved){\r\n                    isApproved1=\"true\";\r\n                }else{\r\n                    isApproved1=\"false\";\r\n                }\r\n            }\r\n        }\r\n        return (drname1,reason1,isApproved1,amount1,temp);\r\n    }\r\n    function isDr(address _address) public view returns(bool){\r\n        return (user[_address].isDoctor);\r\n    }\r\n    function getDoctors() view public returns (address[] memory) {\r\n        return doctorAccounts;\r\n    }\r\n    function getDoctor(address _address) view public returns (string memory) {\r\n        return (user[_address].name);\r\n    }\r\n    function countDoctors() view public returns (uint) {\r\n        return doctorAccounts.length;\r\n    }\r\n    function createInsurance(address _insuredBy,string memory _reason,uint _amount) public checkIsUserLogged2{\r\n        address drtemp= user[_insuredBy].draddr;\r\n        uint id2=insuranceId;\r\n        insurance.push(Insurance(id2, _insuredBy, drtemp, _reason,false, _amount));\r\n        emit InsuranceCreated(id2,_insuredBy, drtemp, _reason, false, _amount);\r\n        insuranceId++;\r\n    }\r\n    function approveInsurance(uint id) public {\r\n        uint id2=find(id);\r\n        insurance[id2].isApproved=true;\r\n     \r\n    }\r\n    function disapproveInsurance(uint id) public checkIsUserLogged2{\r\n        uint id3=find(id);\r\n        insurance[id3].isApproved=false;\r\n    }\r\n    function find(uint id) view internal returns(uint){\r\n        for (uint i = 0; i < insurance.length; i++) {\r\n            if(insurance[i].id==id){\r\n                return i;\r\n            }\r\n        }\r\n        revert('claim does not exists');\r\n    }\r\n\r\n    // user registration function\r\n    function register(\r\n        address _address,\r\n        address _draddress,\r\n\r\n        string memory _name,\r\n        string memory _password,\r\n        \r\n        bool _isDoctor\r\n    ) public returns (bool) {\r\n        require(user[_address].addr != msg.sender);\r\n        user[_address].addr = _address;\r\n        user[_address].draddr = _draddress;\r\n        user[_address].name = _name;\r\n        user[_address].password = _password;\r\n        user[_address].isUserLoggedIn = false;\r\n        user[_address].Amount = 1000;\r\n        user[_address].isDoctor = _isDoctor;\r\n        nextId++;\r\n        if(_isDoctor==true){\r\n        doctorAccounts.push(_address);\r\n        }\r\n\r\n        return true;\r\n    }\r\n\r\n    // user login function\r\n    function login(address _address, string memory _password) public returns (uint){\r\n        bytes memory b1 = bytes(_password);\r\n        bytes memory b2 = bytes(user[_address].password);\r\n        uint256 l1 = b1.length;\r\n        if (l1 != b2.length){\r\n            return 0;\r\n        } \r\n        for (uint256 i=0; i<l1; i++) {\r\n            if (b1[i] != b2[i]) {\r\n                return 0;\r\n            }\r\n            \r\n        }\r\n            user[_address].isUserLoggedIn = true;\r\n            return 1;            \r\n    }\r\n\r\n    // check the user logged In or not\r\n    function checkIsUserLogged(address _address) public view returns (bool) {\r\n        return (user[_address].isUserLoggedIn);\r\n    }\r\n    \r\n    // logout the user\r\n    function logout(address _address) public {\r\n        user[_address].isUserLoggedIn = false;\r\n    }\r\n}",
  "sourcePath": "D:\\Blockchain Projects\\Health Insurance App\\contracts\\Auth.sol",
  "compiler": {
    "name": "solc",
    "version": "0.8.10+commit.fc410830.Emscripten.clang"
  },
  "schemaVersion": "3.4.3",
  "updatedAt": "2021-12-11T13:25:55.443Z",
  "networkType": "ethereum",
  "devdoc": {
    "kind": "dev",
    "methods": {},
    "version": 1
  },
  "userdoc": {
    "kind": "user",
    "methods": {},
    "version": 1
  }
}